:020000040000FA
:020000000328D3
:040002000034003492
:0A000600831203138501831603170C
:100010008801890183160313850186018701880100
:10002000890100308700FF308800031383128501A7
:100030008601870188018901C201C30105100130D1
:1000400086008514F7228510F7220C30860085146F
:10005000F7228510F7223C3086008514F7228510A0
:10006000F7223B206420DA220030A4008A20E2221A
:10007000B320E42133280510F72280308600F222D5
:100080000514F72243308600F2224F308600F22218
:100090004E308600F22254308600F2225230860022
:1000A000F22241308600F22253308600F22245309F
:1000B0008600F2224E308600F22241308600F22283
:1000C0003A308600F22208000510F72290308600B0
:1000D000F2220514F72243308600F2224F308600C8
:1000E000F2224E308600F22246308600F22249305B
:1000F0008600F22252308600F2224D308600F22233
:1001000041308600F22252308600F2223A308600D8
:10011000F2220800DC20421C8A284108A500DC20CD
:10012000421C8F284108A600DC20421C942841086C
:10013000A700DC20421C99284108A800DC20421CB2
:100140009E284108A900DC20421CA3284108B000D9
:10015000DC20421CA8284108B100DC20421CAD284C
:100160004108B20008000621421CB3284108B30030
:100170000621421CB8284108B4000621421CBD28B3
:100180004108B5000621421CC2284108B6000621DC
:10019000421CC7284108B7000621421CCC28410850
:1001A000B8000621421CD1284108B9000621421C92
:1001B000D6284108C0000800421007140818302152
:1001C00007108714081839218710071508184221CD
:1001D0000711071488184B21071087148818542119
:1001E0008710071588185D21071107140819662163
:1001F0000710871408196F2187100715081978212F
:1002000007118714881981218710080042100714EC
:1002100008188A21071087140818932187100715DA
:1002200008189C21071107148818A52107108714A6
:100230008818AE21871007158818B72107110714F1
:100240000819C021071087140819C921871007153C
:100250000819D221071187148819DB21871008009B
:100260000130C1002A308600F222421408183629D3
:1002700008000230C1002A308600F2224214081819
:100280003F2908000330C1002A308600F2224214C0
:100290000818482908000430C1002A308600F222DC
:1002A00042148818512908000530C1002A30860000
:1002B000F222421488185A2908000630C1002A3058
:1002C0008600F22242148818632908000730C10012
:1002D0002A308600F222421408196C2908000830DE
:1002E000C1002A308600F22242140819752908003C
:1002F0000930C1002A308600F222421408197E29F2
:1003000008000030C1002A308600F2224214881909
:10031000872908000130C10031308600F2224214E2
:100320000818902908000230C10032308600F222FD
:1003300042140818992908000330C10033308600A0
:10034000F22242140818A22908000430C1003430F7
:100350008600F22242148818AB2908000530C1003B
:1003600035308600F22242148818B429080006307D
:10037000C10036308600F22242148818BD290800D8
:100380000730C10037308600F22242140819C6290E
:1003900008000830C10038308600F22242140819E3
:1003A000CF2908000930C10039308600F2224214FA
:1003B0000819D82908000030C10030308600F22228
:1003C00042148819E12908003308C1002506031DDD
:1003D0000E223408C1002606031D0E223508C10076
:1003E0002706031D0E223608C1002806031D0E2213
:1003F0003708C1002906031D0E223808C100300647
:10040000031D0E223908C1003106031D0E224008CB
:10041000C1003206031D0E2273220800EA220510D5
:10042000F722C2308600F2220514F7222A30860015
:10043000F2222A308600F2224C308600F2224F301F
:100440008600F22220308600F22253308600F2220B
:1004500049308600F22245308600F2224E30860076
:10046000F22254308600F2224F308600F2222A30E7
:100470008600F2222A308600F222D0308600F22254
:100480000514F72241308600F22243308600F22222
:1004900043308600F22245308600F2225330860037
:1004A000F2224F308600F22220308600F2222030E5
:1004B0008600F22244308600F22245308600F22285
:1004C0004E308600F22245308600F2224730860008
:1004D000F22241308600F22244308600F2224F3070
:1004E0008600F2220F2AEA220510F722C230860087
:1004F000F2220514F7222A308600F2222A308600E2
:10050000F22245308600F22258308600F222433033
:100510008600F22245308600F2224C308600F2221C
:1005200045308600F2224E308600F222543086009A
:10053000F22245308600F2222A308600F2222A304A
:100540008600F2220510F72290308600F222051470
:10055000F72241308600F22243308600F2224330F7
:100560008600F22245308600F22253308600F222C5
:100570004F308600F22220308600F2225030860072
:10058000F22245308600F22252308600F2224D30AF
:100590008600F22249308600F22254308600F22290
:1005A00049308600F22244308600F2224F30860025
:1005B000F222742A0510F722C2308600F2220514B6
:1005C000F72208000510F722D2308600F222051427
:1005D000F72208000510F72201308600F2220514E8
:1005E000F72208008514F7228510F7220800A201DF
:1005F0000A30A3005030A200A20BFC2AA30BFA2A57
:020600000800F0
:02400E00F42C90
:02401000FF3F70
:00000001FF
